:100895003F065B4F666D7D077F6F777C395E7971AB
:0108A5000052
:10038400E4F50878107C00FD7BFF7A087995FE7F00
:10039400111202981208C10508E50875F03284E5C7
:1003A400F0701412056BE4FBFA7920784112000313
:1003B4001201478E098F0AC3E509648094805010A6
:1003C400C3E4950AF50AE49509F509750B40800321
:1003D400E4F50BAE09AF0A7C037DE81202EB74105E
:1003E4002FF8E6F50CAE09AF0A7C037DE81202EBA8
:1003F400AA04AB057D647C00AF03AE021202EB7469
:10040400102FF8E6F50D7D647C00AF03AE021202F6
:10041400EBAA04AB057D0A7C00AF03AE021202EB2B
:1004240074102FF8E64480F50E7D0A7C00AF03AE0D
:10043400021202EB74102DF8E6F50F7B007A0079B6
:090444000B7D0412044D02039B20
:100767008F2E8D2F1207B67FA01206791207DAAFE8
:100777002E1206791207DAAF2F1206791207DA124C
:09078700083A7F0A7E0002081CFA
:020737008F3001
:10073900E4F5311207B67FA01206791207DAAF3055
:100749001206791207DA1207B67FA1120679120783
:0D075900DAE4FF1206F98F3112083AAF31D1
:010766002270
:1007B600D2A07F017E001208B6D2A17F017E001270
:1007C60008B6C2A07F017E001208B6C2A17F017ED4
:0407D600000208B65F
:10083A00C2A07F017E001208B6D2A17F017E0012FB
:0B084A0008B6D2A07F017E000208B6B5
:10085500C2A1C2A07F017E001208B6D2A17F017E8F
:07086500001208B6C2A12237
:10086C00C2A1D2A07F017E001208B6D2A17F017E68
:07087C00001208B6C2A12220
:1007DA00E4F534D2A17F01FE1208B630A00F053429
:1007EA00E534D3946440F412083A7F0122C2A17F0F
:0107FA0000FE
:0107FB0022DB
:020679008F32BE
:10067B00E4F533C2A1F533E5325480D39400400442
:10068B00D2A08002C2A0E53225E0F5327F017E00C8
:10069B001208B6D2A17F017E001208B6C2A17F015B
:0E06AB007E001208B60533E533C3940840C93B
:0106B900221E
:0206F9008F2B45
:1006FB00E4F52CF52DF52CC2A17F017E001208B676
:10070B00D2A1E52D25E0F52D30A002052D7F017E30
:10071B00001208B6052CE52CC3940840DAE52B70C3
:0B072B000512086C8003120855AF2D6A
:0107360022A0
:06044D008B218A228923A5
:10045300E4F524ED14F525F524E524C39408507B35
:10046300E524B40800504D900471F8282873020461
:100473008902048D0204910204950204990204A1E5
:100483000204A90204B1D2A4800ED2A48012D2A481
:100493008016D2A4801AC2A4D2A3D2A28016C2A468
:1004A300D2A3C2A2800EC2A4C2A3D2A28006C2A4B7
:1004B300C2A3C2A2C3E5249525FFE49400AB21AAFD
:1004C30022A9238F82F5831202BEF5807F647E000A
:0B04D3001208B6E4F580052402045C6A
:0104DE0022FB
:0308C800013501F6
:1005E600EF6003753501E5356401702E30B10930D1
:1005F600B00630B20320B3227FE87E031208B6E4C9
:10060600F53520B1037F012220B0037F022220B2FC
:10061600037F032220B3127F042230B10C30B009CD
:0B06260030B20630B3037535017F00D1
:0106310022A6
:10088300C2B77F4B7E001208B6D2B77F027E00024A
:0208930008B6A5
:10063200E4F52830B712E528C39414500B05287F3F
:10064200017E001208B680EBE528C3941440037FB4
:100652000122E4F52820B712E528C39414500B05B3
:10066200287F017E001208B680EBE528C39414406F
:06067200037F01227F005E
:01067800225F
:1007FC00E4F52AC2B70000D2B7000030B705752A5D
:0F080C00018003E4F52A7F057E001208B6AF2AAB
:01081B0022BA
:10079000E4F528F529FFF5281207FCE529C313F530
:1007A00029EFC4333333548042290528E528C39404
:0507B0000840E5AF293F
:0107B5002221
:0206BA008F2887
:1006BC00E4F529F52AF529E5285401F52AE528C39E
:1006CC0013F528E52A600FC2B70000D2B77F067E6B
:1006DC00001208B6800DC2B77F067E001208B6D293
:0C06EC00B700000529E529C3940840CBA5
:0106F80022DF
:0708C1001208831206322227
:1008A6001208831206327FCC1206BA7F440206BAB9
:10056B00E4FFF525F526F5271208A61208831206D7
:10057B00327FCC1206BA7FBE1206BA1207908F25B5
:10058B00120790EFFE7C00E42525F527EC3EF526BF
:10059B0054F8FEEEB4F821E527F4FFE526F4FEEF60
:1005AB002401F527E43EF526FCAD27E412010EE409
:1005BB00FBFA798078BD800FAC26AD27E412010ED3
:1005CB00E4FBFA7980783D1200038F248E238D2271
:0A05DB008C21AF24AE23AD22AC2129
:0105E50022F3
:0B08B600EF1FAC0670011E4C70F62214
:10081C00D3EF9400EE940040147D6E7C00ED1D70BF
:0D082C00011CED4C70F7EF1F70E61E80E31D
:01083900229C
:10000300EC4D6011E8497017ED33EC3304600DE4F7
:10001300FCFFFEFD22E933E8330470F80201B3125A
:10002300017E58046009E4CC24815006285009025B
:1000330001BD2840030201BAC0E0EB4A7044B98015
:1000430006D0E0FB0201A9EF4E701CBD8008EBFF58
:10005300EAFEE9FD80EBE98DF0A4FEE5F00200EC99
:10006300E9CDF9EAFEEBFFEF89F0A4FCE5F0CE89D8
:10007300F0A42EFFE435F0CD89F0A42DFEE435F095
:100083008067EF4E7005BD80D780C3EF8BF0A4ACC3
:10009300F0EE8BF0A42CFCE435F0F8EF8AF0A42CFE
:1000A300E5F038FCE433CB8DF0A42CFCE5F03BF811
:1000B300EE8AF0A42CFCE5F038F8E433CF89F0A401
:1000C3002CFCE5F038CF3400CE89F0A42FFFE5F007
:1000D3003EFEE433C98DF0A42EFEE5F039CD8AF05F
:1000E300A42FFFE5F03EFEE43DFD33D0E0FB5007D7
:1000F3000BBB000F0201BDEC2CFCEF33FFEE33FE14
:06010300ED33FD02019541
:1001090075F020800E75F010800575F0087D007E71
:10011900007F003392D530D503120321EC33401010
:10012900EF33FFEE33FEED33FDEC33FCD5F0ED227A
:0E013900E5F0247EA2D513CC92E7CDCEFF22B6
:10014700EDD2E7CD33EC3392D524814006E4FFFEB0
:10015700FDFC22FCE4CFCECDCC24E0501174FF800F
:10016700EDC3CC13CCCD13CDCE13CECF13CF0470AC
:07017700F030D5DE02032188
:10017E00E9D2E7C933E833F892D5EDD2E7CD33ECC7
:07018E0033FC5002B2D52240
:10019500EC30E7100FBF000C0EBE00080DBD0004CB
:1001A5000BEB6014A2D5EB13FCED92E7FD2274FF77
:1001B500FCFDFEFF22E480F8A2D574FF13FC7D80D0
:0301C500E480EFE4
:030000000204DF18
:0C04DF00787FE4F6D8FD75813502052613
:1001C800E709F608DFFA8046E709F208DFFA803E19
:1001D80088828C83E709F0A3DFFA8032E309F60806
:1001E800DFFA8078E309F208DFFA807088828C836E
:1001F800E309F0A3DFFA806489828A83E0A3F60822
:10020800DFFA805889828A83E0A3F208DFFA804CFB
:1002180080D280FA80C680D4806980F280338010D2
:1002280080A680EA809A80A880DA80E280CA80333B
:1002380089828A83ECFAE493A3C8C582C8CCC583B3
:10024800CCF0A3C8C582C8CCC583CCDFE9DEE78083
:100258000D89828A83E493A3F608DFF9ECFAA9F002
:10026800EDFB2289828A83ECFAE0A3C8C582C8CC58
:10027800C583CCF0A3C8C582C8CCC583CCDFEADE71
:10028800E880DB89828A83E493A3F208DFF980CCD3
:1002980088F0EF60010E4E60C388F0ED2402B404CC
:1002A8000050B9F582EB2402B4040050AF23234573
:0602B8008223900218737E
:1002BE00BB010CE58229F582E5833AF583E02250F5
:1002CE0006E92582F8E622BBFE06E92582F8E2223F
:0D02DE00E58229F582E5833AF583E4932259
:1002EB00C2D5EC30E709B2D5E4C39DFDE49CFCEE2E
:1002FB0030E715B2D5E4C39FFFE49EFE12032FC374
:10030B00E49DFDE49CFC800312032F30D507C3E46E
:06031B009FFFE49EFE229C
:0E032100C3E49FFFE49EFEE49DFDE49CFC22ED
:1004EB00020384E493A3F8E493A34003F68001F2A0
:1004FB0008DFF48029E493A3F85407240CC8C33312
:10050B00C4540F4420C8834004F456800146F6DFE0
:10051B00E4800B01020408102040809008C8E47EA0
:10052B00019360BCA3FF543F30E509541FFEE493D5
:10053B00A360010ECF54C025E060A840B8E493A39C
:10054B00FAE493A3F8E493A3C8C582C8CAC583CAC7
:10055B00F0A3C8C582C8CAC583CADFE9DEE780BE7F
:0108CB00002C
:10032F00BC000BBE0029EF8DF084FFADF022E4CCB2
:10033F00F875F008EF2FFFEE33FEEC33FCEE9DEC7B
:10034F00984005FCEE9DFE0FD5F0E9E4CEFD22EDC1
:10035F00F8F5F0EE8420D21CFEADF075F008EF2F0B
:10036F00FFED33FD4007985006D5F0F222C398FDFC
:05037F000FD5F0EA2299
:00000001FF
