:10092500E4F519F51AE4FF1209928F19E519B401D6
:1009350009AD1AE4FF120ABA8027E519B40209E4E1
:10094500FF120A5D8F1A8019E519B4030C051AE523
:100955001AB4FF0D751AFF8008E519B40403E4F510
:100965001AE51A75F06484F51BE51A75F06484AF11
:10097500F0EF75F00A84F51CEF75F00A8485F01D1B
:0D0985007B007A00791B7D06120800809827
:100ABA008F1E8D1F120AE37FA01209DE120B07AFE9
:100ACA001E1209DE120B07AF1F1209DE120B0712E4
:090ADA000B477F0A7E00020B2984
:020A5D008F1EEA
:100A5F00E4F51F120AE37FA01209DE120B07AF1E87
:100A6F001209DE120B07120AE37FA11209DE120B25
:0D0A7F0007E4FF120A1F8F1F120B47AF1F65
:010A8C002247
:100AE300D2A07F017E00120BA7D2A17F017E00124C
:100AF3000BA7C2A07F017E00120BA7C2A17F017EBC
:040B030000020BA73A
:100B4700C2A07F017E00120BA7D2A17F017E0012F7
:0B0B57000BA7D2A07F017E00020BA7BD
:100B6200C2A1C2A07F017E00120BA7D2A17F017E8B
:070B720000120BA7C2A12233
:100B7900C2A1D2A07F017E00120BA7D2A17F017E64
:070B890000120BA7C2A1221C
:100B0700E4F520D2A17F01FE120BA730A00F05202C
:100B1700E520D3946440F4120B477F0122C2A17FE2
:010B270000CD
:010B280022AA
:0209DE008F2068
:1009E000E4F521C2A1F521E5205480D39400400410
:1009F000D2A08002C2A0E52025E0F5207F017E0084
:100A0000120BA7D2A17F017E00120BA7C2A17F010A
:0E0A10007E00120BA70521E521C3940840C902
:010A1E0022B5
:020A1F008F2026
:100A2100E4F521F522F521C2A17F017E00120BA779
:100A3100D2A1E52225E0F52230A00205227F017E28
:100A410000120BA70521E521C3940840DAE52070C7
:0B0A510005120B798003120B62AF222C
:010A5C002277
:100B900011083F065B4F666D7D077F6F777C395E7E
:030BA00079710068
:060800008B1E8A1F8920F7
:10080600E4F521ED14F522F521E521C39408400312
:10081600020898E521B40800504D900827F82828CA
:100826007302083F02084302084702084B02084FBA
:1008360002085702085F020867D2A4800ED2A4807D
:1008460012D2A48016D2A4801AC2A4D2A3D2A280A5
:1008560016C2A4D2A3C2A2800EC2A4C2A3D2A280F0
:1008660006C2A4C2A3C2A2C3E5219522FFE4940056
:10087600AB1EAA1FA9208F82F583120A8D2408F8C1
:10088600E6F5807F647E00120BA7E4F58005210261
:02089600080F49
:01089800223D
:030BA3000123012A
:10099200EF6003752301E5236401702E30B1093045
:1009A200B00630B20320B3227FE87E03120BA7E425
:1009B200F52320B1037F012220B0037F022220B25F
:1009C200037F032220B3127F042230B10C30B0091E
:0B09D20030B20630B3037523017F0034
:0109DD0022F7
:0B0BA700EF1FAC0670011E4C70F62220
:100B2900D3EF9400EE940040147D6E7C00ED1D70AF
:0D0B3900011CED4C70F7EF1F70E61E80E30D
:010B4600228C
:030000000208995A
:0C089900787FE4F6D8FD7581230208E0AA
:100A8D00BB010CE58229F582E5833AF583E022501E
:100A9D0006E92582F8E622BBFE06E92582F8E22268
:0D0AAD00E58229F582E5833AF583E4932282
:1008A500020925E493A3F8E493A34003F68001F23B
:1008B50008DFF48029E493A3F85407240CC8C33354
:1008C500C4540F4420C8834004F456800146F6DF23
:1008D500E4800B0102040810204080900B90E47E18
:1008E500019360BCA3FF543F30E509541FFEE49318
:1008F500A360010ECF54C025E060A840B8E493A3DF
:10090500FAE493A3F8E493A3C8C582C8CAC583CA09
:10091500F0A3C8C582C8CAC583CADFE9DEE780BEC1
:010BA600004E
:00000001FF
