:100121001203C212044BE518C4540F241DF8E6F55E
:100131002EE518540F241DF8E6F52F753040E5170C
:10014100C4540F241DF8E6F531E517540F241DF8AA
:10015100E6F532753340E516C4540F241DF8E6F573
:1001610034E516540F241DF8E6F5357B007A007945
:080171002E7D0112000380AB9A
:100353008F3E8D3F12037C7FA01202101203A0AFC9
:100363003E1202101203A0AF3F1202101203A0129A
:0903730004027F0A7E000203E48B
:0202F6008F4037
:1002F800E4F54112037C7FA01202101203A0AF4064
:100308001202101203A012037C7FA1120210120322
:0D031800A0E4FF1202518F41120402AF4118
:0103250022B5
:10037C00D2A07F017E00120461D2A17F017E001207
:10038C000461C2A07F017E00120461C2A17F017EC4
:04039C0000020461F6
:10040200C2A07F017E00120461D2A17F017E001290
:0B0412000461D2A07F017E00020461A3
:10041D00C2A1C2A07F017E00120461D2A17F017E24
:07042D0000120461C2A122CC
:10043400C2A1D2A07F017E00120461D2A17F017EFD
:0704440000120461C2A122B5
:1003A000E4F544D2A17F01FE12046130A00F0544A0
:1003B000E544D3946440F41204027F0122C2A17F79
:0103C000003C
:0103C1002219
:020210008F421B
:10021200E4F543C2A1F543E5425480D3940040047F
:10022200D2A08002C2A0E54225E0F5427F017E0015
:10023200120461D2A17F017E00120461C2A17F017A
:0E0242007E001204610543E543C3940840C9E1
:01025000228B
:020251008F3BE1
:10025300E4F53CF53DF53CC2A17F017E001204614B
:10026300D2A1E53D25E0F53D30A002053D7F017EAD
:1002730000120461053CE53CC3940840DAE53B7099
:0B02830005120434800312041DAF3D7F
:01028E00224D
:1002C400111D3F065B4F666D7D077F6F777C395E3E
:0302D4007971003D
:060003008B368A378938B4
:10000900E4F539ED14F53AF539E539C39408507B2F
:10001900E539B40800504D900027F82828730200EC
:100029003F02004302004702004B02004F02005703
:1000390002005F020067D2A4800ED2A48012D2A46B
:100049008016D2A4801AC2A4D2A3D2A28016C2A4B6
:10005900D2A3C2A2800EC2A4C2A3D2A28006C2A405
:10006900C2A3C2A2C3E539953AFFE49400AB36AA0C
:1000790037A9388F82F583120326F5807F647E00C5
:0B008900120461E4F58005390200124A
:010094002249
:0302D700014501DD
:10017900EF6003754501E5456401702E30B1093022
:10018900B00630B20320B3227FE87E03120461E493
:10019900F54520B1037F012220B0037F022220B25E
:1001A900037F032220B3127F042230B10C30B0093F
:0B01B90030B20630B3037545017F0033
:0101C4002218
:1002DA00070F81838587898B8D07088082848688AA
:0B02EA008A8C071647511320040521E1
:10028F00E4FEC2B500C2B600D2B500EF1392B4EFD0
:10029F00C313FFD2B600C2B6000EBE08EEE4FEEDE9
:1002AF001392B4EDC313FDD2B600C2B6000EBE0852
:0402BF00EEC2B500D6
:0102C3002218
:1001C500E4FEFDFBC2B500C2B600D2B500EF139246
:1001D500B4EFC313FFD2B600C2B6000EBE08EEE4FC
:1001E500FEA2B4E433FDC43333335480FFEBC313B1
:1001F5004FFBD2B600C2B6000EBE08E5C2B500D2AE
:0A020500B600C2B400D2B400AF038B
:01020F0022CC
:1003C200E4FCFD7F8E12028F74082CF8E6FF74168F
:1003D2002CF8E6FD12028F0CBC07ED7D807F8E02A9
:0203E200028F88
:10044B00E4FC740F2CF8E6FF1201C574162CF8A609
:05045B00070CBC07EDD9
:010460002279
:0B046100EF1FAC0670011E4C70F6226D
:1003E400D3EF9400EE940040147D6E7C00ED1D70FC
:0D03F400011CED4C70F7EF1F70E61E80E35A
:0104010022D8
:0300000002009566
:0C009500787FE4F6D8FD7581450200DCA0
:10032600BB010CE58229F582E5833AF583E022508C
:1003360006E92582F8E622BBFE06E92582F8E222D6
:0D034600E58229F582E5833AF583E49322F0
:1000A100020121E493A3F8E493A34003F68001F253
:1000B10008DFF48029E493A3F85407240CC8C33360
:1000C100C4540F4420C8834004F456800146F6DF2F
:1000D100E4800B01020408102040809002C4E47EF9
:1000E100019360BCA3FF543F30E509541FFEE49324
:1000F100A360010ECF54C025E060A840B8E493A3EB
:10010100FAE493A3F8E493A3C8C582C8CAC583CA15
:10011100F0A3C8C582C8CAC583CADFE9DEE780BECD
:0102F5000008
:00000001FF
