:1000E7000810387C7E3F3F7E7C3808087FBFDFEFF3
:0400F700F7FBFDFE18
:0B00FC00EF1FAC0670011E4C70F622D6
:02008F00AD07BB
:10009100E4FBC2B5EDC4131313540124FF92B4ED74
:1000A10025E0FDC2B67F017E001200FCD2B67F01C1
:1000B1007E001200FC0BBB08DBD2B57F017E000283
:0200C10000FC41
:1000C300E4FA74102AF8E6FF12008F74082AF8E69F
:1000D300F5807F647E001200FCE4FF12008F0ABAF1
:0400E30008E080DCD5
:03000000020003F8
:0C000300787FE4F6D8FD75811702004AF2
:10000F000200C3E493A3F8E493A34003F68001F244
:10001F0008DFF48029E493A3F85407240CC8C333F2
:10002F00C4540F4420C8834004F456800146F6DFC1
:10003F00E4800B01020408102040809000E7E47E6A
:10004F00019360BCA3FF543F30E509541FFEE493B6
:10005F00A360010ECF54C025E060A840B8E493A37D
:10006F00FAE493A3F8E493A3C8C582C8CAC583CAA8
:10007F00F0A3C8C582C8CAC583CADFE9DEE780BE60
:0100FB000004
:00000001FF
