:0600F600010801010901EF
:0B00EB00EF1FAC0670011E4C70F622E7
:10008F00EF6003750801E5086401702E30B1093087
:10009F00B00630B20320B3227FE87E031200EBE4F8
:1000AF00F50820B1037F012220B0037F022220B286
:1000BF00037F032220B3127F012230B10C30B0092D
:0B00CF0030B20630B3037508017F005B
:0100DA002203
:1000DB00E4FF12008F8F09E509B401F4B2A080F0A0
:03000000020003F8
:0C000300787FE4F6D8FD75810902004A00
:10000F000200DBE493A3F8E493A34003F68001F22C
:10001F0008DFF48029E493A3F85407240CC8C333F2
:10002F00C4540F4420C8834004F456800146F6DFC1
:10003F00E4800B01020408102040809000F6E47E5B
:10004F00019360BCA3FF543F30E509541FFEE493B6
:10005F00A360010ECF54C025E060A840B8E493A37D
:10006F00FAE493A3F8E493A3C8C582C8CAC583CAA8
:10007F00F0A3C8C582C8CAC583CADFE9DEE780BE60
:0100FC000003
:00000001FF
