:1000EA000810007C8282827C000008087FBFDFEF54
:0400FA00F7FBFDFE15
:0B00FF00EF1FAC0670011E4C70F622D3
:02008F00AD07BB
:10009100C2B5E4FBEDC4131313540124FF92B4ED74
:1000A10025E0FDC2B67F017E001200FFD2B67F01BE
:1000B1007E001200FF0BBB08DBD2B57F017E000280
:0200C10000FF3E
:1000C30075807FE4FA74102AF8E6FF12008F740833
:1000D3002AF8E6F5807F647E001200FFE4FF120039
:0700E3008F0ABA08E080DC7F
:03000000020003F8
:0C000300787FE4F6D8FD75811702004AF2
:10000F000200C3E493A3F8E493A34003F68001F244
:10001F0008DFF48029E493A3F85407240CC8C333F2
:10002F00C4540F4420C8834004F456800146F6DFC1
:10003F00E4800B01020408102040809000EAE47E67
:10004F00019360BCA3FF543F30E509541FFEE493B6
:10005F00A360010ECF54C025E060A840B8E493A37D
:10006F00FAE493A3F8E493A3C8C582C8CAC583CAA8
:10007F00F0A3C8C582C8CAC583CADFE9DEE780BE60
:0100FE000001
:00000001FF
